{
  "_format": "hh-sol-artifact-1",
  "contractName": "Waste",
  "sourceName": "contracts/WasteMarketplace.sol",
  "abi": [
    {
      "inputs": [],
      "stateMutability": "nonpayable",
      "type": "constructor"
    },
    {
      "inputs": [
        {
          "internalType": "address",
          "name": "sender",
          "type": "address"
        },
        {
          "internalType": "uint256",
          "name": "tokenId",
          "type": "uint256"
        },
        {
          "internalType": "address",
          "name": "owner",
          "type": "address"
        }
      ],
      "name": "ERC721IncorrectOwner",
      "type": "error"
    },
    {
      "inputs": [
        {
          "internalType": "address",
          "name": "operator",
          "type": "address"
        },
        {
          "internalType": "uint256",
          "name": "tokenId",
          "type": "uint256"
        }
      ],
      "name": "ERC721InsufficientApproval",
      "type": "error"
    },
    {
      "inputs": [
        {
          "internalType": "address",
          "name": "approver",
          "type": "address"
        }
      ],
      "name": "ERC721InvalidApprover",
      "type": "error"
    },
    {
      "inputs": [
        {
          "internalType": "address",
          "name": "operator",
          "type": "address"
        }
      ],
      "name": "ERC721InvalidOperator",
      "type": "error"
    },
    {
      "inputs": [
        {
          "internalType": "address",
          "name": "owner",
          "type": "address"
        }
      ],
      "name": "ERC721InvalidOwner",
      "type": "error"
    },
    {
      "inputs": [
        {
          "internalType": "address",
          "name": "receiver",
          "type": "address"
        }
      ],
      "name": "ERC721InvalidReceiver",
      "type": "error"
    },
    {
      "inputs": [
        {
          "internalType": "address",
          "name": "sender",
          "type": "address"
        }
      ],
      "name": "ERC721InvalidSender",
      "type": "error"
    },
    {
      "inputs": [
        {
          "internalType": "uint256",
          "name": "tokenId",
          "type": "uint256"
        }
      ],
      "name": "ERC721NonexistentToken",
      "type": "error"
    },
    {
      "anonymous": false,
      "inputs": [
        {
          "indexed": true,
          "internalType": "address",
          "name": "owner",
          "type": "address"
        },
        {
          "indexed": true,
          "internalType": "address",
          "name": "approved",
          "type": "address"
        },
        {
          "indexed": true,
          "internalType": "uint256",
          "name": "tokenId",
          "type": "uint256"
        }
      ],
      "name": "Approval",
      "type": "event"
    },
    {
      "anonymous": false,
      "inputs": [
        {
          "indexed": true,
          "internalType": "address",
          "name": "owner",
          "type": "address"
        },
        {
          "indexed": true,
          "internalType": "address",
          "name": "operator",
          "type": "address"
        },
        {
          "indexed": false,
          "internalType": "bool",
          "name": "approved",
          "type": "bool"
        }
      ],
      "name": "ApprovalForAll",
      "type": "event"
    },
    {
      "anonymous": false,
      "inputs": [
        {
          "indexed": false,
          "internalType": "uint256",
          "name": "_fromTokenId",
          "type": "uint256"
        },
        {
          "indexed": false,
          "internalType": "uint256",
          "name": "_toTokenId",
          "type": "uint256"
        }
      ],
      "name": "BatchMetadataUpdate",
      "type": "event"
    },
    {
      "anonymous": false,
      "inputs": [
        {
          "indexed": true,
          "internalType": "uint256",
          "name": "tokenId",
          "type": "uint256"
        },
        {
          "indexed": false,
          "internalType": "address",
          "name": "seller",
          "type": "address"
        },
        {
          "indexed": false,
          "internalType": "address",
          "name": "owner",
          "type": "address"
        },
        {
          "indexed": false,
          "internalType": "uint256",
          "name": "price",
          "type": "uint256"
        },
        {
          "indexed": false,
          "internalType": "bool",
          "name": "recycled",
          "type": "bool"
        }
      ],
      "name": "MarketItemCreated",
      "type": "event"
    },
    {
      "anonymous": false,
      "inputs": [
        {
          "indexed": false,
          "internalType": "uint256",
          "name": "_tokenId",
          "type": "uint256"
        }
      ],
      "name": "MetadataUpdate",
      "type": "event"
    },
    {
      "anonymous": false,
      "inputs": [
        {
          "indexed": true,
          "internalType": "address",
          "name": "from",
          "type": "address"
        },
        {
          "indexed": true,
          "internalType": "address",
          "name": "to",
          "type": "address"
        },
        {
          "indexed": true,
          "internalType": "uint256",
          "name": "tokenId",
          "type": "uint256"
        }
      ],
      "name": "Transfer",
      "type": "event"
    },
    {
      "inputs": [
        {
          "internalType": "address",
          "name": "to",
          "type": "address"
        },
        {
          "internalType": "uint256",
          "name": "tokenId",
          "type": "uint256"
        }
      ],
      "name": "approve",
      "outputs": [],
      "stateMutability": "nonpayable",
      "type": "function"
    },
    {
      "inputs": [
        {
          "internalType": "address",
          "name": "owner",
          "type": "address"
        }
      ],
      "name": "balanceOf",
      "outputs": [
        {
          "internalType": "uint256",
          "name": "",
          "type": "uint256"
        }
      ],
      "stateMutability": "view",
      "type": "function"
    },
    {
      "inputs": [
        {
          "internalType": "uint256",
          "name": "tokenId",
          "type": "uint256"
        }
      ],
      "name": "createMarketSale",
      "outputs": [],
      "stateMutability": "payable",
      "type": "function"
    },
    {
      "inputs": [
        {
          "internalType": "string",
          "name": "tokenURI",
          "type": "string"
        },
        {
          "internalType": "uint256",
          "name": "price",
          "type": "uint256"
        }
      ],
      "name": "createToken",
      "outputs": [
        {
          "internalType": "uint256",
          "name": "",
          "type": "uint256"
        }
      ],
      "stateMutability": "payable",
      "type": "function"
    },
    {
      "inputs": [],
      "name": "fetchItemsListed",
      "outputs": [
        {
          "components": [
            {
              "internalType": "uint256",
              "name": "tokenId",
              "type": "uint256"
            },
            {
              "internalType": "address payable",
              "name": "seller",
              "type": "address"
            },
            {
              "internalType": "address payable",
              "name": "owner",
              "type": "address"
            },
            {
              "internalType": "uint256",
              "name": "price",
              "type": "uint256"
            },
            {
              "internalType": "bool",
              "name": "recycled",
              "type": "bool"
            }
          ],
          "internalType": "struct Waste.MarketItem[]",
          "name": "",
          "type": "tuple[]"
        }
      ],
      "stateMutability": "view",
      "type": "function"
    },
    {
      "inputs": [],
      "name": "fetchMarketItems",
      "outputs": [
        {
          "components": [
            {
              "internalType": "uint256",
              "name": "tokenId",
              "type": "uint256"
            },
            {
              "internalType": "address payable",
              "name": "seller",
              "type": "address"
            },
            {
              "internalType": "address payable",
              "name": "owner",
              "type": "address"
            },
            {
              "internalType": "uint256",
              "name": "price",
              "type": "uint256"
            },
            {
              "internalType": "bool",
              "name": "recycled",
              "type": "bool"
            }
          ],
          "internalType": "struct Waste.MarketItem[]",
          "name": "",
          "type": "tuple[]"
        }
      ],
      "stateMutability": "view",
      "type": "function"
    },
    {
      "inputs": [],
      "name": "fetchMyNFTs",
      "outputs": [
        {
          "components": [
            {
              "internalType": "uint256",
              "name": "tokenId",
              "type": "uint256"
            },
            {
              "internalType": "address payable",
              "name": "seller",
              "type": "address"
            },
            {
              "internalType": "address payable",
              "name": "owner",
              "type": "address"
            },
            {
              "internalType": "uint256",
              "name": "price",
              "type": "uint256"
            },
            {
              "internalType": "bool",
              "name": "recycled",
              "type": "bool"
            }
          ],
          "internalType": "struct Waste.MarketItem[]",
          "name": "",
          "type": "tuple[]"
        }
      ],
      "stateMutability": "view",
      "type": "function"
    },
    {
      "inputs": [
        {
          "internalType": "uint256",
          "name": "tokenId",
          "type": "uint256"
        }
      ],
      "name": "getApproved",
      "outputs": [
        {
          "internalType": "address",
          "name": "",
          "type": "address"
        }
      ],
      "stateMutability": "view",
      "type": "function"
    },
    {
      "inputs": [
        {
          "internalType": "address",
          "name": "owner",
          "type": "address"
        },
        {
          "internalType": "address",
          "name": "operator",
          "type": "address"
        }
      ],
      "name": "isApprovedForAll",
      "outputs": [
        {
          "internalType": "bool",
          "name": "",
          "type": "bool"
        }
      ],
      "stateMutability": "view",
      "type": "function"
    },
    {
      "inputs": [],
      "name": "name",
      "outputs": [
        {
          "internalType": "string",
          "name": "",
          "type": "string"
        }
      ],
      "stateMutability": "view",
      "type": "function"
    },
    {
      "inputs": [
        {
          "internalType": "uint256",
          "name": "tokenId",
          "type": "uint256"
        }
      ],
      "name": "ownerOf",
      "outputs": [
        {
          "internalType": "address",
          "name": "",
          "type": "address"
        }
      ],
      "stateMutability": "view",
      "type": "function"
    },
    {
      "inputs": [
        {
          "internalType": "address",
          "name": "from",
          "type": "address"
        },
        {
          "internalType": "address",
          "name": "to",
          "type": "address"
        },
        {
          "internalType": "uint256",
          "name": "tokenId",
          "type": "uint256"
        }
      ],
      "name": "safeTransferFrom",
      "outputs": [],
      "stateMutability": "nonpayable",
      "type": "function"
    },
    {
      "inputs": [
        {
          "internalType": "address",
          "name": "from",
          "type": "address"
        },
        {
          "internalType": "address",
          "name": "to",
          "type": "address"
        },
        {
          "internalType": "uint256",
          "name": "tokenId",
          "type": "uint256"
        },
        {
          "internalType": "bytes",
          "name": "data",
          "type": "bytes"
        }
      ],
      "name": "safeTransferFrom",
      "outputs": [],
      "stateMutability": "nonpayable",
      "type": "function"
    },
    {
      "inputs": [
        {
          "internalType": "address",
          "name": "operator",
          "type": "address"
        },
        {
          "internalType": "bool",
          "name": "approved",
          "type": "bool"
        }
      ],
      "name": "setApprovalForAll",
      "outputs": [],
      "stateMutability": "nonpayable",
      "type": "function"
    },
    {
      "inputs": [
        {
          "internalType": "bytes4",
          "name": "interfaceId",
          "type": "bytes4"
        }
      ],
      "name": "supportsInterface",
      "outputs": [
        {
          "internalType": "bool",
          "name": "",
          "type": "bool"
        }
      ],
      "stateMutability": "view",
      "type": "function"
    },
    {
      "inputs": [],
      "name": "symbol",
      "outputs": [
        {
          "internalType": "string",
          "name": "",
          "type": "string"
        }
      ],
      "stateMutability": "view",
      "type": "function"
    },
    {
      "inputs": [
        {
          "internalType": "uint256",
          "name": "tokenId",
          "type": "uint256"
        }
      ],
      "name": "tokenURI",
      "outputs": [
        {
          "internalType": "string",
          "name": "",
          "type": "string"
        }
      ],
      "stateMutability": "view",
      "type": "function"
    },
    {
      "inputs": [
        {
          "internalType": "address",
          "name": "from",
          "type": "address"
        },
        {
          "internalType": "address",
          "name": "to",
          "type": "address"
        },
        {
          "internalType": "uint256",
          "name": "tokenId",
          "type": "uint256"
        }
      ],
      "name": "transferFrom",
      "outputs": [],
      "stateMutability": "nonpayable",
      "type": "function"
    }
  ],
  "bytecode": "0x60806040523480156200001157600080fd5b506040518060400160405280600781526020016652656379636c6560c81b8152506040518060400160405280600381526020016252435960e81b81525081600090816200005f91906200012e565b5060016200006e82826200012e565b5050600980546001600160a01b0319163317905550620001fa565b634e487b7160e01b600052604160045260246000fd5b600181811c90821680620000b457607f821691505b602082108103620000d557634e487b7160e01b600052602260045260246000fd5b50919050565b601f8211156200012957600081815260208120601f850160051c81016020861015620001045750805b601f850160051c820191505b81811015620001255782815560010162000110565b5050505b505050565b81516001600160401b038111156200014a576200014a62000089565b62000162816200015b84546200009f565b84620000db565b602080601f8311600181146200019a5760008415620001815750858301515b600019600386901b1c1916600185901b17855562000125565b600085815260208120601f198616915b82811015620001cb57888601518255948401946001909101908401620001aa565b5085821015620001ea5787850151600019600388901b60f8161c191681555b5050505050600190811b01905550565b611c97806200020a6000396000f3fe6080604052600436106101095760003560e01c80636352211e11610095578063a22cb46511610064578063a22cb465146102c1578063b88d4fde146102e1578063be9af53614610301578063c87b56dd14610314578063e985e9c51461033457600080fd5b80636352211e1461024b57806370a082311461026b57806372b3b6201461029957806395d89b41146102ac57600080fd5b80630f08efe0116100dc5780630f08efe0146101bf578063202e3740146101e157806323b872dd146101f657806342842e0e1461021657806345f8fa801461023657600080fd5b806301ffc9a71461010e57806306fdde0314610143578063081812fc14610165578063095ea7b31461019d575b600080fd5b34801561011a57600080fd5b5061012e6101293660046116ab565b610354565b60405190151581526020015b60405180910390f35b34801561014f57600080fd5b5061015861037f565b60405161013a9190611718565b34801561017157600080fd5b5061018561018036600461172b565b610411565b6040516001600160a01b03909116815260200161013a565b3480156101a957600080fd5b506101bd6101b8366004611760565b61043a565b005b3480156101cb57600080fd5b506101d4610449565b60405161013a919061178a565b3480156101ed57600080fd5b506101d46105d0565b34801561020257600080fd5b506101bd610211366004611806565b61079a565b34801561022257600080fd5b506101bd610231366004611806565b61082a565b34801561024257600080fd5b506101d461084a565b34801561025757600080fd5b5061018561026636600461172b565b610a14565b34801561027757600080fd5b5061028b610286366004611842565b610a1f565b60405190815260200161013a565b61028b6102a73660046118e9565b610a67565b3480156102b857600080fd5b50610158610aa5565b3480156102cd57600080fd5b506101bd6102dc366004611942565b610ab4565b3480156102ed57600080fd5b506101bd6102fc36600461197e565b610abf565b6101bd61030f36600461172b565b610ad7565b34801561032057600080fd5b5061015861032f36600461172b565b610c04565b34801561034057600080fd5b5061012e61034f3660046119fa565b610d15565b60006001600160e01b03198216632483248360e11b1480610379575061037982610d43565b92915050565b60606000805461038e90611a2d565b80601f01602080910402602001604051908101604052809291908181526020018280546103ba90611a2d565b80156104075780601f106103dc57610100808354040283529160200191610407565b820191906000526020600020905b8154815290600101906020018083116103ea57829003601f168201915b5050505050905090565b600061041c82610d93565b506000828152600460205260409020546001600160a01b0316610379565b610445828233610dcc565b5050565b600754600854606091906000906104609083611a7d565b90506000808267ffffffffffffffff81111561047e5761047e61185d565b6040519080825280602002602001820160405280156104d757816020015b6040805160a08101825260008082526020808301829052928201819052606082018190526080820152825260001990920191018161049c5790505b50905060005b848110156105c75730600a60006104f5846001611a90565b81526020810191909152604001600020600201546001600160a01b0316036105b5576000610524826001611a90565b6000818152600a6020908152604091829020825160a0810184528154815260018201546001600160a01b039081169382019390935260028201549092169282019290925260038201546060820152600482015460ff16151560808201528551929350909185908790811061059a5761059a611aa3565b60209081029190910101526105b0600186611a90565b945050505b806105bf81611ab9565b9150506104dd565b50949350505050565b600754606090600080805b838110156106355733600a60006105f3846001611a90565b81526020810191909152604001600020600201546001600160a01b03160361062357610620600184611a90565b92505b8061062d81611ab9565b9150506105db565b5060008267ffffffffffffffff8111156106515761065161185d565b6040519080825280602002602001820160405280156106aa57816020015b6040805160a08101825260008082526020808301829052928201819052606082018190526080820152825260001990920191018161066f5790505b50905060005b848110156105c75733600a60006106c8846001611a90565b81526020810191909152604001600020600201546001600160a01b0316036107885760006106f7826001611a90565b6000818152600a6020908152604091829020825160a0810184528154815260018201546001600160a01b039081169382019390935260028201549092169282019290925260038201546060820152600482015460ff16151560808201528551929350909185908790811061076d5761076d611aa3565b6020908102919091010152610783600186611a90565b945050505b8061079281611ab9565b9150506106b0565b6001600160a01b0382166107c957604051633250574960e11b8152600060048201526024015b60405180910390fd5b60006107d6838333610dd9565b9050836001600160a01b0316816001600160a01b031614610824576040516364283d7b60e01b81526001600160a01b03808616600483015260248201849052821660448201526064016107c0565b50505050565b61084583838360405180602001604052806000815250610abf565b505050565b600754606090600080805b838110156108af5733600a600061086d846001611a90565b81526020810191909152604001600020600101546001600160a01b03160361089d5761089a600184611a90565b92505b806108a781611ab9565b915050610855565b5060008267ffffffffffffffff8111156108cb576108cb61185d565b60405190808252806020026020018201604052801561092457816020015b6040805160a0810182526000808252602080830182905292820181905260608201819052608082015282526000199092019101816108e95790505b50905060005b848110156105c75733600a6000610942846001611a90565b81526020810191909152604001600020600101546001600160a01b031603610a02576000610971826001611a90565b6000818152600a6020908152604091829020825160a0810184528154815260018201546001600160a01b039081169382019390935260028201549092169282019290925260038201546060820152600482015460ff1615156080820152855192935090918590879081106109e7576109e7611aa3565b60209081029190910101526109fd600186611a90565b945050505b80610a0c81611ab9565b91505061092a565b600061037982610d93565b60006001600160a01b038216610a4b576040516322718ad960e21b8152600060048201526024016107c0565b506001600160a01b031660009081526003602052604090205490565b6007805460009182610a7883611ab9565b9091555050600754610a8a3382610ed2565b610a948185610f37565b610a9e8184610f87565b9392505050565b60606001805461038e90611a2d565b61044533838361106c565b610aca84848461079a565b610824338585858561110b565b6000818152600a6020526040902060038101546001909101546001600160a01b0316348214610b70576040805162461bcd60e51b81526020600482015260248101919091527f506c65617365207375626d6974207468652061736b696e67207072696365206960448201527f6e206f7264657220746f20636f6d706c6574652074686520707572636861736560648201526084016107c0565b6000838152600a602052604081206002810180546001600160a01b0319908116331790915560048201805460ff19166001908117909155909101805490911690556008805491610bbf83611ab9565b9190505550610bcf303385611236565b6040516001600160a01b038216903480156108fc02916000818181858888f19350505050158015610824573d6000803e3d6000fd5b6060610c0f82610d93565b5060008281526006602052604081208054610c2990611a2d565b80601f0160208091040260200160405190810160405280929190818152602001828054610c5590611a2d565b8015610ca25780601f10610c7757610100808354040283529160200191610ca2565b820191906000526020600020905b815481529060010190602001808311610c8557829003601f168201915b505050505090506000610cc060408051602081019091526000815290565b90508051600003610cd2575092915050565b815115610d04578082604051602001610cec929190611ad2565b60405160208183030381529060405292505050919050565b610d0d846112e6565b949350505050565b6001600160a01b03918216600090815260056020908152604080832093909416825291909152205460ff1690565b60006001600160e01b031982166380ac58cd60e01b1480610d7457506001600160e01b03198216635b5e139f60e01b145b8061037957506301ffc9a760e01b6001600160e01b0319831614610379565b6000818152600260205260408120546001600160a01b03168061037957604051637e27328960e01b8152600481018490526024016107c0565b610845838383600161135a565b6000828152600260205260408120546001600160a01b0390811690831615610e0657610e06818486611460565b6001600160a01b03811615610e4457610e2360008560008061135a565b6001600160a01b038116600090815260036020526040902080546000190190555b6001600160a01b03851615610e73576001600160a01b0385166000908152600360205260409020805460010190555b60008481526002602052604080822080546001600160a01b0319166001600160a01b0389811691821790925591518793918516917fddf252ad1be2c89b69c2b068fc378daa952ba7f163c4a11628f55a4df523b3ef91a4949350505050565b6001600160a01b038216610efc57604051633250574960e11b8152600060048201526024016107c0565b6000610f0a83836000610dd9565b90506001600160a01b03811615610845576040516339e3563760e11b8152600060048201526024016107c0565b6000828152600660205260409020610f4f8282611b47565b506040518281527ff8e1a15aba9398e019f0b49df1a4fde98ee17ae345cb5f6b5e2c27f5033e8ce79060200160405180910390a15050565b6040805160a08101825283815233602080830182815230848601818152606086018881526000608088018181528b8252600a909652979097209551865591516001860180546001600160a01b03199081166001600160a01b0393841617909155925160028701805490941691161790915593516003840155516004909201805460ff19169215159290921790915561101f9184611236565b604080513381523060208201529081018290526000606082015282907fb640004f1d14576d0c209e240cad0410e0d8c0c33a09375861fbadae2588a98d9060800160405180910390a25050565b6001600160a01b03821661109e57604051630b61174360e31b81526001600160a01b03831660048201526024016107c0565b6001600160a01b03838116600081815260056020908152604080832094871680845294825291829020805460ff191686151590811790915591519182527f17307eab39ab6107e8899845ad3d59bd9653f200f220920489ca2b5937696c31910160405180910390a3505050565b6001600160a01b0383163b1561122f57604051630a85bd0160e11b81526001600160a01b0384169063150b7a029061114d908890889087908790600401611c07565b6020604051808303816000875af1925050508015611188575060408051601f3d908101601f1916820190925261118591810190611c44565b60015b6111f1573d8080156111b6576040519150601f19603f3d011682016040523d82523d6000602084013e6111bb565b606091505b5080516000036111e957604051633250574960e11b81526001600160a01b03851660048201526024016107c0565b805160208201fd5b6001600160e01b03198116630a85bd0160e11b1461122d57604051633250574960e11b81526001600160a01b03851660048201526024016107c0565b505b5050505050565b6001600160a01b03821661126057604051633250574960e11b8152600060048201526024016107c0565b600061126e83836000610dd9565b90506001600160a01b03811661129a57604051637e27328960e01b8152600481018390526024016107c0565b836001600160a01b0316816001600160a01b031614610824576040516364283d7b60e01b81526001600160a01b03808616600483015260248201849052821660448201526064016107c0565b60606112f182610d93565b50600061130960408051602081019091526000815290565b905060008151116113295760405180602001604052806000815250610a9e565b80611333846114c4565b604051602001611344929190611ad2565b6040516020818303038152906040529392505050565b808061136e57506001600160a01b03821615155b1561143057600061137e84610d93565b90506001600160a01b038316158015906113aa5750826001600160a01b0316816001600160a01b031614155b80156113bd57506113bb8184610d15565b155b156113e65760405163a9fbf51f60e01b81526001600160a01b03841660048201526024016107c0565b811561142e5783856001600160a01b0316826001600160a01b03167f8c5be1e5ebec7d5bd14f71427d1e84f3dd0314c0f7b2291e5b200ac8c7c3b92560405160405180910390a45b505b5050600090815260046020526040902080546001600160a01b0319166001600160a01b0392909216919091179055565b61146b838383611557565b610845576001600160a01b03831661149957604051637e27328960e01b8152600481018290526024016107c0565b60405163177e802f60e01b81526001600160a01b0383166004820152602481018290526044016107c0565b606060006114d1836115ba565b600101905060008167ffffffffffffffff8111156114f1576114f161185d565b6040519080825280601f01601f19166020018201604052801561151b576020820181803683370190505b5090508181016020015b600019016f181899199a1a9b1b9c1cb0b131b232b360811b600a86061a8153600a850494508461152557509392505050565b60006001600160a01b03831615801590610d0d5750826001600160a01b0316846001600160a01b0316148061159157506115918484610d15565b80610d0d5750506000908152600460205260409020546001600160a01b03908116911614919050565b60008072184f03e93ff9f4daa797ed6e38ed64bf6a1f0160401b83106115f95772184f03e93ff9f4daa797ed6e38ed64bf6a1f0160401b830492506040015b6d04ee2d6d415b85acef81000000008310611625576d04ee2d6d415b85acef8100000000830492506020015b662386f26fc10000831061164357662386f26fc10000830492506010015b6305f5e100831061165b576305f5e100830492506008015b612710831061166f57612710830492506004015b60648310611681576064830492506002015b600a83106103795760010192915050565b6001600160e01b0319811681146116a857600080fd5b50565b6000602082840312156116bd57600080fd5b8135610a9e81611692565b60005b838110156116e35781810151838201526020016116cb565b50506000910152565b600081518084526117048160208601602086016116c8565b601f01601f19169290920160200192915050565b602081526000610a9e60208301846116ec565b60006020828403121561173d57600080fd5b5035919050565b80356001600160a01b038116811461175b57600080fd5b919050565b6000806040838503121561177357600080fd5b61177c83611744565b946020939093013593505050565b602080825282518282018190526000919060409081850190868401855b828110156117f957815180518552868101516001600160a01b03908116888701528682015116868601526060808201519086015260809081015115159085015260a090930192908501906001016117a7565b5091979650505050505050565b60008060006060848603121561181b57600080fd5b61182484611744565b925061183260208501611744565b9150604084013590509250925092565b60006020828403121561185457600080fd5b610a9e82611744565b634e487b7160e01b600052604160045260246000fd5b600067ffffffffffffffff8084111561188e5761188e61185d565b604051601f8501601f19908116603f011681019082821181831017156118b6576118b661185d565b816040528093508581528686860111156118cf57600080fd5b858560208301376000602087830101525050509392505050565b600080604083850312156118fc57600080fd5b823567ffffffffffffffff81111561191357600080fd5b8301601f8101851361192457600080fd5b61193385823560208401611873565b95602094909401359450505050565b6000806040838503121561195557600080fd5b61195e83611744565b91506020830135801515811461197357600080fd5b809150509250929050565b6000806000806080858703121561199457600080fd5b61199d85611744565b93506119ab60208601611744565b925060408501359150606085013567ffffffffffffffff8111156119ce57600080fd5b8501601f810187136119df57600080fd5b6119ee87823560208401611873565b91505092959194509250565b60008060408385031215611a0d57600080fd5b611a1683611744565b9150611a2460208401611744565b90509250929050565b600181811c90821680611a4157607f821691505b602082108103611a6157634e487b7160e01b600052602260045260246000fd5b50919050565b634e487b7160e01b600052601160045260246000fd5b8181038181111561037957610379611a67565b8082018082111561037957610379611a67565b634e487b7160e01b600052603260045260246000fd5b600060018201611acb57611acb611a67565b5060010190565b60008351611ae48184602088016116c8565b835190830190611af88183602088016116c8565b01949350505050565b601f82111561084557600081815260208120601f850160051c81016020861015611b285750805b601f850160051c820191505b8181101561122d57828155600101611b34565b815167ffffffffffffffff811115611b6157611b6161185d565b611b7581611b6f8454611a2d565b84611b01565b602080601f831160018114611baa5760008415611b925750858301515b600019600386901b1c1916600185901b17855561122d565b600085815260208120601f198616915b82811015611bd957888601518255948401946001909101908401611bba565b5085821015611bf75787850151600019600388901b60f8161c191681555b5050505050600190811b01905550565b6001600160a01b0385811682528416602082015260408101839052608060608201819052600090611c3a908301846116ec565b9695505050505050565b600060208284031215611c5657600080fd5b8151610a9e8161169256fea2646970667358221220f7c5d77295ccbeb655e3f2f91aa599a9167795cb55dc85eddef3eb54df82ec1164736f6c63430008140033",
  "linkReferences": {},
  "deployedLinkReferences": {}
}